{"abi":[{"type":"constructor","inputs":[{"name":"_daoAddress","type":"address","internalType":"address"}],"stateMutability":"nonpayable"},{"type":"function","name":"approve","inputs":[{"name":"to","type":"address","internalType":"address"},{"name":"tokenId","type":"uint256","internalType":"uint256"}],"outputs":[],"stateMutability":"nonpayable"},{"type":"function","name":"balanceOf","inputs":[{"name":"owner","type":"address","internalType":"address"}],"outputs":[{"name":"","type":"uint256","internalType":"uint256"}],"stateMutability":"view"},{"type":"function","name":"daoAddress","inputs":[],"outputs":[{"name":"","type":"address","internalType":"address"}],"stateMutability":"view"},{"type":"function","name":"getApproved","inputs":[{"name":"tokenId","type":"uint256","internalType":"uint256"}],"outputs":[{"name":"","type":"address","internalType":"address"}],"stateMutability":"view"},{"type":"function","name":"hasMembership","inputs":[{"name":"","type":"address","internalType":"address"}],"outputs":[{"name":"","type":"bool","internalType":"bool"}],"stateMutability":"view"},{"type":"function","name":"isApprovedForAll","inputs":[{"name":"owner","type":"address","internalType":"address"},{"name":"operator","type":"address","internalType":"address"}],"outputs":[{"name":"","type":"bool","internalType":"bool"}],"stateMutability":"view"},{"type":"function","name":"mint","inputs":[{"name":"to","type":"address","internalType":"address"}],"outputs":[],"stateMutability":"nonpayable"},{"type":"function","name":"name","inputs":[],"outputs":[{"name":"","type":"string","internalType":"string"}],"stateMutability":"view"},{"type":"function","name":"nextTokenId","inputs":[],"outputs":[{"name":"","type":"uint256","internalType":"uint256"}],"stateMutability":"view"},{"type":"function","name":"owner","inputs":[],"outputs":[{"name":"","type":"address","internalType":"address"}],"stateMutability":"view"},{"type":"function","name":"ownerOf","inputs":[{"name":"tokenId","type":"uint256","internalType":"uint256"}],"outputs":[{"name":"","type":"address","internalType":"address"}],"stateMutability":"view"},{"type":"function","name":"renounceOwnership","inputs":[],"outputs":[],"stateMutability":"nonpayable"},{"type":"function","name":"safeTransferFrom","inputs":[{"name":"from","type":"address","internalType":"address"},{"name":"to","type":"address","internalType":"address"},{"name":"tokenId","type":"uint256","internalType":"uint256"}],"outputs":[],"stateMutability":"nonpayable"},{"type":"function","name":"safeTransferFrom","inputs":[{"name":"from","type":"address","internalType":"address"},{"name":"to","type":"address","internalType":"address"},{"name":"tokenId","type":"uint256","internalType":"uint256"},{"name":"data","type":"bytes","internalType":"bytes"}],"outputs":[],"stateMutability":"nonpayable"},{"type":"function","name":"setApprovalForAll","inputs":[{"name":"operator","type":"address","internalType":"address"},{"name":"approved","type":"bool","internalType":"bool"}],"outputs":[],"stateMutability":"nonpayable"},{"type":"function","name":"supportsInterface","inputs":[{"name":"interfaceId","type":"bytes4","internalType":"bytes4"}],"outputs":[{"name":"","type":"bool","internalType":"bool"}],"stateMutability":"view"},{"type":"function","name":"symbol","inputs":[],"outputs":[{"name":"","type":"string","internalType":"string"}],"stateMutability":"view"},{"type":"function","name":"tokenByIndex","inputs":[{"name":"index","type":"uint256","internalType":"uint256"}],"outputs":[{"name":"","type":"uint256","internalType":"uint256"}],"stateMutability":"view"},{"type":"function","name":"tokenOfOwnerByIndex","inputs":[{"name":"owner","type":"address","internalType":"address"},{"name":"index","type":"uint256","internalType":"uint256"}],"outputs":[{"name":"","type":"uint256","internalType":"uint256"}],"stateMutability":"view"},{"type":"function","name":"tokenURI","inputs":[{"name":"tokenId","type":"uint256","internalType":"uint256"}],"outputs":[{"name":"","type":"string","internalType":"string"}],"stateMutability":"view"},{"type":"function","name":"totalSupply","inputs":[],"outputs":[{"name":"","type":"uint256","internalType":"uint256"}],"stateMutability":"view"},{"type":"function","name":"transferFrom","inputs":[{"name":"from","type":"address","internalType":"address"},{"name":"to","type":"address","internalType":"address"},{"name":"tokenId","type":"uint256","internalType":"uint256"}],"outputs":[],"stateMutability":"nonpayable"},{"type":"function","name":"transferOwnership","inputs":[{"name":"newOwner","type":"address","internalType":"address"}],"outputs":[],"stateMutability":"nonpayable"},{"type":"event","name":"Approval","inputs":[{"name":"owner","type":"address","indexed":true,"internalType":"address"},{"name":"approved","type":"address","indexed":true,"internalType":"address"},{"name":"tokenId","type":"uint256","indexed":true,"internalType":"uint256"}],"anonymous":false},{"type":"event","name":"ApprovalForAll","inputs":[{"name":"owner","type":"address","indexed":true,"internalType":"address"},{"name":"operator","type":"address","indexed":true,"internalType":"address"},{"name":"approved","type":"bool","indexed":false,"internalType":"bool"}],"anonymous":false},{"type":"event","name":"OwnershipTransferred","inputs":[{"name":"previousOwner","type":"address","indexed":true,"internalType":"address"},{"name":"newOwner","type":"address","indexed":true,"internalType":"address"}],"anonymous":false},{"type":"event","name":"Transfer","inputs":[{"name":"from","type":"address","indexed":true,"internalType":"address"},{"name":"to","type":"address","indexed":true,"internalType":"address"},{"name":"tokenId","type":"uint256","indexed":true,"internalType":"uint256"}],"anonymous":false},{"type":"error","name":"ERC721EnumerableForbiddenBatchMint","inputs":[]},{"type":"error","name":"ERC721IncorrectOwner","inputs":[{"name":"sender","type":"address","internalType":"address"},{"name":"tokenId","type":"uint256","internalType":"uint256"},{"name":"owner","type":"address","internalType":"address"}]},{"type":"error","name":"ERC721InsufficientApproval","inputs":[{"name":"operator","type":"address","internalType":"address"},{"name":"tokenId","type":"uint256","internalType":"uint256"}]},{"type":"error","name":"ERC721InvalidApprover","inputs":[{"name":"approver","type":"address","internalType":"address"}]},{"type":"error","name":"ERC721InvalidOperator","inputs":[{"name":"operator","type":"address","internalType":"address"}]},{"type":"error","name":"ERC721InvalidOwner","inputs":[{"name":"owner","type":"address","internalType":"address"}]},{"type":"error","name":"ERC721InvalidReceiver","inputs":[{"name":"receiver","type":"address","internalType":"address"}]},{"type":"error","name":"ERC721InvalidSender","inputs":[{"name":"sender","type":"address","internalType":"address"}]},{"type":"error","name":"ERC721NonexistentToken","inputs":[{"name":"tokenId","type":"uint256","internalType":"uint256"}]},{"type":"error","name":"ERC721OutOfBoundsIndex","inputs":[{"name":"owner","type":"address","internalType":"address"},{"name":"index","type":"uint256","internalType":"uint256"}]},{"type":"error","name":"OwnableInvalidOwner","inputs":[{"name":"owner","type":"address","internalType":"address"}]},{"type":"error","name":"OwnableUnauthorizedAccount","inputs":[{"name":"account","type":"address","internalType":"address"}]}],"bytecode":{"object":"0x608060405234801561000f575f5ffd5b5060405161185238038061185283398101604081905261002e9161014c565b806040518060400160405280601481526020017f4d6f7669652044414f204d656d62657273686970000000000000000000000000815250604051806040016040528060038152602001624d444d60e81b815250815f908161008f9190610211565b50600161009c8282610211565b5050506001600160a01b0381166100cc57604051631e4fbdf760e01b81525f600482015260240160405180910390fd5b6100d5816100fb565b50600c80546001600160a01b0319166001600160a01b03929092169190911790556102cb565b600a80546001600160a01b038381166001600160a01b0319831681179093556040519116919082907f8be0079c531659141344cd1fd0a4f28419497f9722a3daafe3b4186f6b6457e0905f90a35050565b5f6020828403121561015c575f5ffd5b81516001600160a01b0381168114610172575f5ffd5b9392505050565b634e487b7160e01b5f52604160045260245ffd5b600181811c908216806101a157607f821691505b6020821081036101bf57634e487b7160e01b5f52602260045260245ffd5b50919050565b601f82111561020c57805f5260205f20601f840160051c810160208510156101ea5750805b601f840160051c820191505b81811015610209575f81556001016101f6565b50505b505050565b81516001600160401b0381111561022a5761022a610179565b61023e81610238845461018d565b846101c5565b6020601f821160018114610270575f83156102595750848201515b5f19600385901b1c1916600184901b178455610209565b5f84815260208120601f198516915b8281101561029f578785015182556020948501946001909201910161027f565b50848210156102bc57868401515f19600387901b60f8161c191681555b50505050600190811b01905550565b61157a806102d85f395ff3fe608060405234801561000f575f5ffd5b5060043610610148575f3560e01c80636a627842116100bf578063a22cb46511610079578063a22cb4651461029d578063a88db6ad146102b0578063b88d4fde146102d2578063c87b56dd146102e5578063e985e9c5146102f8578063f2fde38b1461030b575f5ffd5b80636a6278421461024d57806370a0823114610260578063715018a61461027357806375794a3c1461027b5780638da5cb5b1461028457806395d89b4114610295575f5ffd5b80632131c68c116101105780632131c68c146101db57806323b872dd146101ee5780632f745c591461020157806342842e0e146102145780634f6ccce7146102275780636352211e1461023a575f5ffd5b806301ffc9a71461014c57806306fdde0314610174578063081812fc14610189578063095ea7b3146101b457806318160ddd146101c9575b5f5ffd5b61015f61015a3660046111c0565b61031e565b60405190151581526020015b60405180910390f35b61017c610348565b60405161016b9190611209565b61019c61019736600461121b565b6103d7565b6040516001600160a01b03909116815260200161016b565b6101c76101c236600461124d565b6103fe565b005b6008545b60405190815260200161016b565b600c5461019c906001600160a01b031681565b6101c76101fc366004611275565b61040d565b6101cd61020f36600461124d565b61049b565b6101c7610222366004611275565b6104fe565b6101cd61023536600461121b565b61051d565b61019c61024836600461121b565b610572565b6101c761025b3660046112af565b61057c565b6101cd61026e3660046112af565b610676565b6101c76106bb565b6101cd600b5481565b600a546001600160a01b031661019c565b61017c6106ce565b6101c76102ab3660046112c8565b6106dd565b61015f6102be3660046112af565b600d6020525f908152604090205460ff1681565b6101c76102e0366004611315565b6106e8565b61017c6102f336600461121b565b610700565b61015f6103063660046113f2565b610771565b6101c76103193660046112af565b61079e565b5f6001600160e01b0319821663780e9d6360e01b14806103425750610342826107db565b92915050565b60605f805461035690611423565b80601f016020809104026020016040519081016040528092919081815260200182805461038290611423565b80156103cd5780601f106103a4576101008083540402835291602001916103cd565b820191905f5260205f20905b8154815290600101906020018083116103b057829003601f168201915b5050505050905090565b5f6103e18261082a565b505f828152600460205260409020546001600160a01b0316610342565b610409828233610862565b5050565b6001600160a01b03821661043b57604051633250574960e11b81525f60048201526024015b60405180910390fd5b5f61044783833361086f565b9050836001600160a01b0316816001600160a01b031614610495576040516364283d7b60e01b81526001600160a01b0380861660048301526024820184905282166044820152606401610432565b50505050565b5f6104a583610676565b82106104d65760405163295f44f760e21b81526001600160a01b038416600482015260248101839052604401610432565b506001600160a01b03919091165f908152600660209081526040808320938352929052205490565b61051883838360405180602001604052805f8152506106e8565b505050565b5f61052760085490565b821061054f5760405163295f44f760e21b81525f600482015260248101839052604401610432565b600882815481106105625761056261145b565b905f5260205f2001549050919050565b5f6103428261082a565b600c546001600160a01b031633146105ca5760405162461bcd60e51b815260206004820152601160248201527013db9b1e48111053c818d85b881b5a5b9d607a1b6044820152606401610432565b6001600160a01b0381165f908152600d602052604090205460ff16156106325760405162461bcd60e51b815260206004820152601b60248201527f5573657220616c726561647920686173206d656d6265727368697000000000006044820152606401610432565b600b80545f918261064283611483565b9190505590506106528282610942565b506001600160a01b03165f908152600d60205260409020805460ff19166001179055565b5f6001600160a01b0382166106a0576040516322718ad960e21b81525f6004820152602401610432565b506001600160a01b03165f9081526003602052604090205490565b6106c361095b565b6106cc5f610988565b565b60606001805461035690611423565b6104093383836109d9565b6106f384848461040d565b6104953385858585610a77565b606061070b8261082a565b505f61072160408051602081019091525f815290565b90505f81511161073f5760405180602001604052805f81525061076a565b8061074984610b9f565b60405160200161075a9291906114b2565b6040516020818303038152906040525b9392505050565b6001600160a01b039182165f90815260056020908152604080832093909416825291909152205460ff1690565b6107a661095b565b6001600160a01b0381166107cf57604051631e4fbdf760e01b81525f6004820152602401610432565b6107d881610988565b50565b5f6001600160e01b031982166380ac58cd60e01b148061080b57506001600160e01b03198216635b5e139f60e01b145b8061034257506301ffc9a760e01b6001600160e01b0319831614610342565b5f818152600260205260408120546001600160a01b03168061034257604051637e27328960e01b815260048101849052602401610432565b6105188383836001610c2f565b5f5f61087c858585610d33565b90506001600160a01b0381166108d8576108d384600880545f838152600960205260408120829055600182018355919091527ff3f7a9fe364faab93b216da50a3214154f22a0a2b415b23a84c8169e8b636ee30155565b6108fb565b846001600160a01b0316816001600160a01b0316146108fb576108fb8185610e25565b6001600160a01b0385166109175761091284610ea2565b61093a565b846001600160a01b0316816001600160a01b03161461093a5761093a8585610f49565b949350505050565b610409828260405180602001604052805f815250610f97565b600a546001600160a01b031633146106cc5760405163118cdaa760e01b8152336004820152602401610432565b600a80546001600160a01b038381166001600160a01b0319831681179093556040519116919082907f8be0079c531659141344cd1fd0a4f28419497f9722a3daafe3b4186f6b6457e0905f90a35050565b6001600160a01b038216610a0b57604051630b61174360e31b81526001600160a01b0383166004820152602401610432565b6001600160a01b038381165f81815260056020908152604080832094871680845294825291829020805460ff191686151590811790915591519182527f17307eab39ab6107e8899845ad3d59bd9653f200f220920489ca2b5937696c31910160405180910390a3505050565b6001600160a01b0383163b15610b9857604051630a85bd0160e11b81526001600160a01b0384169063150b7a0290610ab99088908890879087906004016114c6565b6020604051808303815f875af1925050508015610af3575060408051601f3d908101601f19168201909252610af091810190611502565b60015b610b5a573d808015610b20576040519150601f19603f3d011682016040523d82523d5f602084013e610b25565b606091505b5080515f03610b5257604051633250574960e11b81526001600160a01b0385166004820152602401610432565b805181602001fd5b6001600160e01b03198116630a85bd0160e11b14610b9657604051633250574960e11b81526001600160a01b0385166004820152602401610432565b505b5050505050565b60605f610bab83610fae565b60010190505f8167ffffffffffffffff811115610bca57610bca611301565b6040519080825280601f01601f191660200182016040528015610bf4576020820181803683370190505b5090508181016020015b5f19016f181899199a1a9b1b9c1cb0b131b232b360811b600a86061a8153600a8504945084610bfe57509392505050565b8080610c4357506001600160a01b03821615155b15610d04575f610c528461082a565b90506001600160a01b03831615801590610c7e5750826001600160a01b0316816001600160a01b031614155b8015610c915750610c8f8184610771565b155b15610cba5760405163a9fbf51f60e01b81526001600160a01b0384166004820152602401610432565b8115610d025783856001600160a01b0316826001600160a01b03167f8c5be1e5ebec7d5bd14f71427d1e84f3dd0314c0f7b2291e5b200ac8c7c3b92560405160405180910390a45b505b50505f90815260046020526040902080546001600160a01b0319166001600160a01b0392909216919091179055565b5f828152600260205260408120546001600160a01b0390811690831615610d5f57610d5f818486611085565b6001600160a01b03811615610d9957610d7a5f855f5f610c2f565b6001600160a01b0381165f90815260036020526040902080545f190190555b6001600160a01b03851615610dc7576001600160a01b0385165f908152600360205260409020805460010190555b5f8481526002602052604080822080546001600160a01b0319166001600160a01b0389811691821790925591518793918516917fddf252ad1be2c89b69c2b068fc378daa952ba7f163c4a11628f55a4df523b3ef91a4949350505050565b5f610e2f83610676565b5f838152600760209081526040808320546001600160a01b0388168452600690925290912091925090818314610e84575f83815260208281526040808320548584528184208190558352600790915290208290555b5f938452600760209081526040808620869055938552525081205550565b6008545f90610eb39060019061151d565b5f8381526009602052604081205460088054939450909284908110610eda57610eda61145b565b905f5260205f20015490508060088381548110610ef957610ef961145b565b5f918252602080832090910192909255828152600990915260408082208490558582528120556008805480610f3057610f30611530565b600190038181905f5260205f20015f9055905550505050565b5f6001610f5584610676565b610f5f919061151d565b6001600160a01b039093165f908152600660209081526040808320868452825280832085905593825260079052919091209190915550565b610fa183836110e9565b610518335f858585610a77565b5f8072184f03e93ff9f4daa797ed6e38ed64bf6a1f0160401b8310610fec5772184f03e93ff9f4daa797ed6e38ed64bf6a1f0160401b830492506040015b6d04ee2d6d415b85acef81000000008310611018576d04ee2d6d415b85acef8100000000830492506020015b662386f26fc10000831061103657662386f26fc10000830492506010015b6305f5e100831061104e576305f5e100830492506008015b612710831061106257612710830492506004015b60648310611074576064830492506002015b600a83106103425760010192915050565b61109083838361114a565b610518576001600160a01b0383166110be57604051637e27328960e01b815260048101829052602401610432565b60405163177e802f60e01b81526001600160a01b038316600482015260248101829052604401610432565b6001600160a01b03821661111257604051633250574960e11b81525f6004820152602401610432565b5f61111e83835f61086f565b90506001600160a01b03811615610518576040516339e3563760e11b81525f6004820152602401610432565b5f6001600160a01b0383161580159061093a5750826001600160a01b0316846001600160a01b0316148061118357506111838484610771565b8061093a5750505f908152600460205260409020546001600160a01b03908116911614919050565b6001600160e01b0319811681146107d8575f5ffd5b5f602082840312156111d0575f5ffd5b813561076a816111ab565b5f81518084528060208401602086015e5f602082860101526020601f19601f83011685010191505092915050565b602081525f61076a60208301846111db565b5f6020828403121561122b575f5ffd5b5035919050565b80356001600160a01b0381168114611248575f5ffd5b919050565b5f5f6040838503121561125e575f5ffd5b61126783611232565b946020939093013593505050565b5f5f5f60608486031215611287575f5ffd5b61129084611232565b925061129e60208501611232565b929592945050506040919091013590565b5f602082840312156112bf575f5ffd5b61076a82611232565b5f5f604083850312156112d9575f5ffd5b6112e283611232565b9150602083013580151581146112f6575f5ffd5b809150509250929050565b634e487b7160e01b5f52604160045260245ffd5b5f5f5f5f60808587031215611328575f5ffd5b61133185611232565b935061133f60208601611232565b925060408501359150606085013567ffffffffffffffff811115611361575f5ffd5b8501601f81018713611371575f5ffd5b803567ffffffffffffffff81111561138b5761138b611301565b604051601f8201601f19908116603f0116810167ffffffffffffffff811182821017156113ba576113ba611301565b6040528181528282016020018910156113d1575f5ffd5b816020840160208301375f6020838301015280935050505092959194509250565b5f5f60408385031215611403575f5ffd5b61140c83611232565b915061141a60208401611232565b90509250929050565b600181811c9082168061143757607f821691505b60208210810361145557634e487b7160e01b5f52602260045260245ffd5b50919050565b634e487b7160e01b5f52603260045260245ffd5b634e487b7160e01b5f52601160045260245ffd5b5f600182016114945761149461146f565b5060010190565b5f81518060208401855e5f93019283525090919050565b5f61093a6114c0838661149b565b8461149b565b6001600160a01b03858116825284166020820152604081018390526080606082018190525f906114f8908301846111db565b9695505050505050565b5f60208284031215611512575f5ffd5b815161076a816111ab565b818103818111156103425761034261146f565b634e487b7160e01b5f52603160045260245ffdfea2646970667358221220847b6b6adcc240f86700bb30ebe33b51bec9be7c482cc70d59907ec737540f6d64736f6c634300081c0033","linkReferences":{}},"methodIdentifiers":{"approve(address,uint256)":"095ea7b3","balanceOf(address)":"70a08231","daoAddress()":"2131c68c","getApproved(uint256)":"081812fc","hasMembership(address)":"a88db6ad","isApprovedForAll(address,address)":"e985e9c5","mint(address)":"6a627842","name()":"06fdde03","nextTokenId()":"75794a3c","owner()":"8da5cb5b","ownerOf(uint256)":"6352211e","renounceOwnership()":"715018a6","safeTransferFrom(address,address,uint256)":"42842e0e","safeTransferFrom(address,address,uint256,bytes)":"b88d4fde","setApprovalForAll(address,bool)":"a22cb465","supportsInterface(bytes4)":"01ffc9a7","symbol()":"95d89b41","tokenByIndex(uint256)":"4f6ccce7","tokenOfOwnerByIndex(address,uint256)":"2f745c59","tokenURI(uint256)":"c87b56dd","totalSupply()":"18160ddd","transferFrom(address,address,uint256)":"23b872dd","transferOwnership(address)":"f2fde38b"},"id":38}