{"abi":[{"type":"constructor","inputs":[{"name":"initialOwner","type":"address","internalType":"address"}],"stateMutability":"nonpayable"},{"type":"function","name":"approve","inputs":[{"name":"to","type":"address","internalType":"address"},{"name":"tokenId","type":"uint256","internalType":"uint256"}],"outputs":[],"stateMutability":"nonpayable"},{"type":"function","name":"balanceOf","inputs":[{"name":"owner","type":"address","internalType":"address"}],"outputs":[{"name":"","type":"uint256","internalType":"uint256"}],"stateMutability":"view"},{"type":"function","name":"getApproved","inputs":[{"name":"tokenId","type":"uint256","internalType":"uint256"}],"outputs":[{"name":"","type":"address","internalType":"address"}],"stateMutability":"view"},{"type":"function","name":"isApprovedForAll","inputs":[{"name":"owner","type":"address","internalType":"address"},{"name":"operator","type":"address","internalType":"address"}],"outputs":[{"name":"","type":"bool","internalType":"bool"}],"stateMutability":"view"},{"type":"function","name":"mint","inputs":[{"name":"to","type":"address","internalType":"address"}],"outputs":[],"stateMutability":"nonpayable"},{"type":"function","name":"name","inputs":[],"outputs":[{"name":"","type":"string","internalType":"string"}],"stateMutability":"view"},{"type":"function","name":"nextTokenId","inputs":[],"outputs":[{"name":"","type":"uint256","internalType":"uint256"}],"stateMutability":"view"},{"type":"function","name":"owner","inputs":[],"outputs":[{"name":"","type":"address","internalType":"address"}],"stateMutability":"view"},{"type":"function","name":"ownerOf","inputs":[{"name":"tokenId","type":"uint256","internalType":"uint256"}],"outputs":[{"name":"","type":"address","internalType":"address"}],"stateMutability":"view"},{"type":"function","name":"renounceOwnership","inputs":[],"outputs":[],"stateMutability":"nonpayable"},{"type":"function","name":"safeTransferFrom","inputs":[{"name":"from","type":"address","internalType":"address"},{"name":"to","type":"address","internalType":"address"},{"name":"tokenId","type":"uint256","internalType":"uint256"}],"outputs":[],"stateMutability":"nonpayable"},{"type":"function","name":"safeTransferFrom","inputs":[{"name":"from","type":"address","internalType":"address"},{"name":"to","type":"address","internalType":"address"},{"name":"tokenId","type":"uint256","internalType":"uint256"},{"name":"data","type":"bytes","internalType":"bytes"}],"outputs":[],"stateMutability":"nonpayable"},{"type":"function","name":"setApprovalForAll","inputs":[{"name":"operator","type":"address","internalType":"address"},{"name":"approved","type":"bool","internalType":"bool"}],"outputs":[],"stateMutability":"nonpayable"},{"type":"function","name":"supportsInterface","inputs":[{"name":"interfaceId","type":"bytes4","internalType":"bytes4"}],"outputs":[{"name":"","type":"bool","internalType":"bool"}],"stateMutability":"view"},{"type":"function","name":"symbol","inputs":[],"outputs":[{"name":"","type":"string","internalType":"string"}],"stateMutability":"view"},{"type":"function","name":"tokenByIndex","inputs":[{"name":"index","type":"uint256","internalType":"uint256"}],"outputs":[{"name":"","type":"uint256","internalType":"uint256"}],"stateMutability":"view"},{"type":"function","name":"tokenOfOwnerByIndex","inputs":[{"name":"owner","type":"address","internalType":"address"},{"name":"index","type":"uint256","internalType":"uint256"}],"outputs":[{"name":"","type":"uint256","internalType":"uint256"}],"stateMutability":"view"},{"type":"function","name":"tokenURI","inputs":[{"name":"tokenId","type":"uint256","internalType":"uint256"}],"outputs":[{"name":"","type":"string","internalType":"string"}],"stateMutability":"view"},{"type":"function","name":"totalSupply","inputs":[],"outputs":[{"name":"","type":"uint256","internalType":"uint256"}],"stateMutability":"view"},{"type":"function","name":"transferFrom","inputs":[{"name":"from","type":"address","internalType":"address"},{"name":"to","type":"address","internalType":"address"},{"name":"tokenId","type":"uint256","internalType":"uint256"}],"outputs":[],"stateMutability":"nonpayable"},{"type":"function","name":"transferOwnership","inputs":[{"name":"newOwner","type":"address","internalType":"address"}],"outputs":[],"stateMutability":"nonpayable"},{"type":"event","name":"Approval","inputs":[{"name":"owner","type":"address","indexed":true,"internalType":"address"},{"name":"approved","type":"address","indexed":true,"internalType":"address"},{"name":"tokenId","type":"uint256","indexed":true,"internalType":"uint256"}],"anonymous":false},{"type":"event","name":"ApprovalForAll","inputs":[{"name":"owner","type":"address","indexed":true,"internalType":"address"},{"name":"operator","type":"address","indexed":true,"internalType":"address"},{"name":"approved","type":"bool","indexed":false,"internalType":"bool"}],"anonymous":false},{"type":"event","name":"OwnershipTransferred","inputs":[{"name":"previousOwner","type":"address","indexed":true,"internalType":"address"},{"name":"newOwner","type":"address","indexed":true,"internalType":"address"}],"anonymous":false},{"type":"event","name":"Transfer","inputs":[{"name":"from","type":"address","indexed":true,"internalType":"address"},{"name":"to","type":"address","indexed":true,"internalType":"address"},{"name":"tokenId","type":"uint256","indexed":true,"internalType":"uint256"}],"anonymous":false},{"type":"error","name":"ERC721EnumerableForbiddenBatchMint","inputs":[]},{"type":"error","name":"ERC721IncorrectOwner","inputs":[{"name":"sender","type":"address","internalType":"address"},{"name":"tokenId","type":"uint256","internalType":"uint256"},{"name":"owner","type":"address","internalType":"address"}]},{"type":"error","name":"ERC721InsufficientApproval","inputs":[{"name":"operator","type":"address","internalType":"address"},{"name":"tokenId","type":"uint256","internalType":"uint256"}]},{"type":"error","name":"ERC721InvalidApprover","inputs":[{"name":"approver","type":"address","internalType":"address"}]},{"type":"error","name":"ERC721InvalidOperator","inputs":[{"name":"operator","type":"address","internalType":"address"}]},{"type":"error","name":"ERC721InvalidOwner","inputs":[{"name":"owner","type":"address","internalType":"address"}]},{"type":"error","name":"ERC721InvalidReceiver","inputs":[{"name":"receiver","type":"address","internalType":"address"}]},{"type":"error","name":"ERC721InvalidSender","inputs":[{"name":"sender","type":"address","internalType":"address"}]},{"type":"error","name":"ERC721NonexistentToken","inputs":[{"name":"tokenId","type":"uint256","internalType":"uint256"}]},{"type":"error","name":"ERC721OutOfBoundsIndex","inputs":[{"name":"owner","type":"address","internalType":"address"},{"name":"index","type":"uint256","internalType":"uint256"}]},{"type":"error","name":"OwnableInvalidOwner","inputs":[{"name":"owner","type":"address","internalType":"address"}]},{"type":"error","name":"OwnableUnauthorizedAccount","inputs":[{"name":"account","type":"address","internalType":"address"}]}],"bytecode":{"object":"0x608060405234801561000f575f5ffd5b5060405161171938038061171983398101604081905261002e9161012d565b806040518060400160405280601481526020017f4d6f7669652044414f204d656d62657273686970000000000000000000000000815250604051806040016040528060038152602001624d444d60e81b815250815f908161008f91906101f2565b50600161009c82826101f2565b5050506001600160a01b0381166100cc57604051631e4fbdf760e01b81525f600482015260240160405180910390fd5b6100d5816100dc565b50506102ac565b600a80546001600160a01b038381166001600160a01b0319831681179093556040519116919082907f8be0079c531659141344cd1fd0a4f28419497f9722a3daafe3b4186f6b6457e0905f90a35050565b5f6020828403121561013d575f5ffd5b81516001600160a01b0381168114610153575f5ffd5b9392505050565b634e487b7160e01b5f52604160045260245ffd5b600181811c9082168061018257607f821691505b6020821081036101a057634e487b7160e01b5f52602260045260245ffd5b50919050565b601f8211156101ed57805f5260205f20601f840160051c810160208510156101cb5750805b601f840160051c820191505b818110156101ea575f81556001016101d7565b50505b505050565b81516001600160401b0381111561020b5761020b61015a565b61021f81610219845461016e565b846101a6565b6020601f821160018114610251575f831561023a5750848201515b5f19600385901b1c1916600184901b1784556101ea565b5f84815260208120601f198516915b828110156102805787850151825560209485019460019092019101610260565b508482101561029d57868401515f19600387901b60f8161c191681555b50505050600190811b01905550565b611460806102b95f395ff3fe608060405234801561000f575f5ffd5b5060043610610132575f3560e01c80636a627842116100b457806395d89b411161007957806395d89b411461026c578063a22cb46514610274578063b88d4fde14610287578063c87b56dd1461029a578063e985e9c5146102ad578063f2fde38b146102c0575f5ffd5b80636a6278421461022457806370a0823114610237578063715018a61461024a57806375794a3c146102525780638da5cb5b1461025b575f5ffd5b806323b872dd116100fa57806323b872dd146101c55780632f745c59146101d857806342842e0e146101eb5780634f6ccce7146101fe5780636352211e14610211575f5ffd5b806301ffc9a71461013657806306fdde031461015e578063081812fc14610173578063095ea7b31461019e57806318160ddd146101b3575b5f5ffd5b6101496101443660046110a6565b6102d3565b60405190151581526020015b60405180910390f35b6101666102fd565b60405161015591906110ef565b610186610181366004611101565b61038c565b6040516001600160a01b039091168152602001610155565b6101b16101ac366004611133565b6103b3565b005b6008545b604051908152602001610155565b6101b16101d336600461115b565b6103c2565b6101b76101e6366004611133565b610450565b6101b16101f936600461115b565b6104b3565b6101b761020c366004611101565b6104d2565b61018661021f366004611101565b610527565b6101b1610232366004611195565b610531565b6101b7610245366004611195565b61055c565b6101b16105a1565b6101b7600b5481565b600a546001600160a01b0316610186565b6101666105b4565b6101b16102823660046111ae565b6105c3565b6101b16102953660046111fb565b6105ce565b6101666102a8366004611101565b6105e6565b6101496102bb3660046112d8565b610657565b6101b16102ce366004611195565b610684565b5f6001600160e01b0319821663780e9d6360e01b14806102f757506102f7826106c1565b92915050565b60605f805461030b90611309565b80601f016020809104026020016040519081016040528092919081815260200182805461033790611309565b80156103825780601f1061035957610100808354040283529160200191610382565b820191905f5260205f20905b81548152906001019060200180831161036557829003601f168201915b5050505050905090565b5f61039682610710565b505f828152600460205260409020546001600160a01b03166102f7565b6103be828233610748565b5050565b6001600160a01b0382166103f057604051633250574960e11b81525f60048201526024015b60405180910390fd5b5f6103fc838333610755565b9050836001600160a01b0316816001600160a01b03161461044a576040516364283d7b60e01b81526001600160a01b03808616600483015260248201849052821660448201526064016103e7565b50505050565b5f61045a8361055c565b821061048b5760405163295f44f760e21b81526001600160a01b0384166004820152602481018390526044016103e7565b506001600160a01b03919091165f908152600660209081526040808320938352929052205490565b6104cd83838360405180602001604052805f8152506105ce565b505050565b5f6104dc60085490565b82106105045760405163295f44f760e21b81525f6004820152602481018390526044016103e7565b6008828154811061051757610517611341565b905f5260205f2001549050919050565b5f6102f782610710565b610539610828565b61054581600b54610855565b600b8054905f61055483611369565b919050555050565b5f6001600160a01b038216610586576040516322718ad960e21b81525f60048201526024016103e7565b506001600160a01b03165f9081526003602052604090205490565b6105a9610828565b6105b25f61086e565b565b60606001805461030b90611309565b6103be3383836108bf565b6105d98484846103c2565b61044a338585858561095d565b60606105f182610710565b505f61060760408051602081019091525f815290565b90505f8151116106255760405180602001604052805f815250610650565b8061062f84610a85565b604051602001610640929190611398565b6040516020818303038152906040525b9392505050565b6001600160a01b039182165f90815260056020908152604080832093909416825291909152205460ff1690565b61068c610828565b6001600160a01b0381166106b557604051631e4fbdf760e01b81525f60048201526024016103e7565b6106be8161086e565b50565b5f6001600160e01b031982166380ac58cd60e01b14806106f157506001600160e01b03198216635b5e139f60e01b145b806102f757506301ffc9a760e01b6001600160e01b03198316146102f7565b5f818152600260205260408120546001600160a01b0316806102f757604051637e27328960e01b8152600481018490526024016103e7565b6104cd8383836001610b15565b5f5f610762858585610c19565b90506001600160a01b0381166107be576107b984600880545f838152600960205260408120829055600182018355919091527ff3f7a9fe364faab93b216da50a3214154f22a0a2b415b23a84c8169e8b636ee30155565b6107e1565b846001600160a01b0316816001600160a01b0316146107e1576107e18185610d0b565b6001600160a01b0385166107fd576107f884610d88565b610820565b846001600160a01b0316816001600160a01b031614610820576108208585610e2f565b949350505050565b600a546001600160a01b031633146105b25760405163118cdaa760e01b81523360048201526024016103e7565b6103be828260405180602001604052805f815250610e7d565b600a80546001600160a01b038381166001600160a01b0319831681179093556040519116919082907f8be0079c531659141344cd1fd0a4f28419497f9722a3daafe3b4186f6b6457e0905f90a35050565b6001600160a01b0382166108f157604051630b61174360e31b81526001600160a01b03831660048201526024016103e7565b6001600160a01b038381165f81815260056020908152604080832094871680845294825291829020805460ff191686151590811790915591519182527f17307eab39ab6107e8899845ad3d59bd9653f200f220920489ca2b5937696c31910160405180910390a3505050565b6001600160a01b0383163b15610a7e57604051630a85bd0160e11b81526001600160a01b0384169063150b7a029061099f9088908890879087906004016113ac565b6020604051808303815f875af19250505080156109d9575060408051601f3d908101601f191682019092526109d6918101906113e8565b60015b610a40573d808015610a06576040519150601f19603f3d011682016040523d82523d5f602084013e610a0b565b606091505b5080515f03610a3857604051633250574960e11b81526001600160a01b03851660048201526024016103e7565b805181602001fd5b6001600160e01b03198116630a85bd0160e11b14610a7c57604051633250574960e11b81526001600160a01b03851660048201526024016103e7565b505b5050505050565b60605f610a9183610e94565b60010190505f8167ffffffffffffffff811115610ab057610ab06111e7565b6040519080825280601f01601f191660200182016040528015610ada576020820181803683370190505b5090508181016020015b5f19016f181899199a1a9b1b9c1cb0b131b232b360811b600a86061a8153600a8504945084610ae457509392505050565b8080610b2957506001600160a01b03821615155b15610bea575f610b3884610710565b90506001600160a01b03831615801590610b645750826001600160a01b0316816001600160a01b031614155b8015610b775750610b758184610657565b155b15610ba05760405163a9fbf51f60e01b81526001600160a01b03841660048201526024016103e7565b8115610be85783856001600160a01b0316826001600160a01b03167f8c5be1e5ebec7d5bd14f71427d1e84f3dd0314c0f7b2291e5b200ac8c7c3b92560405160405180910390a45b505b50505f90815260046020526040902080546001600160a01b0319166001600160a01b0392909216919091179055565b5f828152600260205260408120546001600160a01b0390811690831615610c4557610c45818486610f6b565b6001600160a01b03811615610c7f57610c605f855f5f610b15565b6001600160a01b0381165f90815260036020526040902080545f190190555b6001600160a01b03851615610cad576001600160a01b0385165f908152600360205260409020805460010190555b5f8481526002602052604080822080546001600160a01b0319166001600160a01b0389811691821790925591518793918516917fddf252ad1be2c89b69c2b068fc378daa952ba7f163c4a11628f55a4df523b3ef91a4949350505050565b5f610d158361055c565b5f838152600760209081526040808320546001600160a01b0388168452600690925290912091925090818314610d6a575f83815260208281526040808320548584528184208190558352600790915290208290555b5f938452600760209081526040808620869055938552525081205550565b6008545f90610d9990600190611403565b5f8381526009602052604081205460088054939450909284908110610dc057610dc0611341565b905f5260205f20015490508060088381548110610ddf57610ddf611341565b5f918252602080832090910192909255828152600990915260408082208490558582528120556008805480610e1657610e16611416565b600190038181905f5260205f20015f9055905550505050565b5f6001610e3b8461055c565b610e459190611403565b6001600160a01b039093165f908152600660209081526040808320868452825280832085905593825260079052919091209190915550565b610e878383610fcf565b6104cd335f85858561095d565b5f8072184f03e93ff9f4daa797ed6e38ed64bf6a1f0160401b8310610ed25772184f03e93ff9f4daa797ed6e38ed64bf6a1f0160401b830492506040015b6d04ee2d6d415b85acef81000000008310610efe576d04ee2d6d415b85acef8100000000830492506020015b662386f26fc100008310610f1c57662386f26fc10000830492506010015b6305f5e1008310610f34576305f5e100830492506008015b6127108310610f4857612710830492506004015b60648310610f5a576064830492506002015b600a83106102f75760010192915050565b610f76838383611030565b6104cd576001600160a01b038316610fa457604051637e27328960e01b8152600481018290526024016103e7565b60405163177e802f60e01b81526001600160a01b0383166004820152602481018290526044016103e7565b6001600160a01b038216610ff857604051633250574960e11b81525f60048201526024016103e7565b5f61100483835f610755565b90506001600160a01b038116156104cd576040516339e3563760e11b81525f60048201526024016103e7565b5f6001600160a01b038316158015906108205750826001600160a01b0316846001600160a01b0316148061106957506110698484610657565b806108205750505f908152600460205260409020546001600160a01b03908116911614919050565b6001600160e01b0319811681146106be575f5ffd5b5f602082840312156110b6575f5ffd5b813561065081611091565b5f81518084528060208401602086015e5f602082860101526020601f19601f83011685010191505092915050565b602081525f61065060208301846110c1565b5f60208284031215611111575f5ffd5b5035919050565b80356001600160a01b038116811461112e575f5ffd5b919050565b5f5f60408385031215611144575f5ffd5b61114d83611118565b946020939093013593505050565b5f5f5f6060848603121561116d575f5ffd5b61117684611118565b925061118460208501611118565b929592945050506040919091013590565b5f602082840312156111a5575f5ffd5b61065082611118565b5f5f604083850312156111bf575f5ffd5b6111c883611118565b9150602083013580151581146111dc575f5ffd5b809150509250929050565b634e487b7160e01b5f52604160045260245ffd5b5f5f5f5f6080858703121561120e575f5ffd5b61121785611118565b935061122560208601611118565b925060408501359150606085013567ffffffffffffffff811115611247575f5ffd5b8501601f81018713611257575f5ffd5b803567ffffffffffffffff811115611271576112716111e7565b604051601f8201601f19908116603f0116810167ffffffffffffffff811182821017156112a0576112a06111e7565b6040528181528282016020018910156112b7575f5ffd5b816020840160208301375f6020838301015280935050505092959194509250565b5f5f604083850312156112e9575f5ffd5b6112f283611118565b915061130060208401611118565b90509250929050565b600181811c9082168061131d57607f821691505b60208210810361133b57634e487b7160e01b5f52602260045260245ffd5b50919050565b634e487b7160e01b5f52603260045260245ffd5b634e487b7160e01b5f52601160045260245ffd5b5f6001820161137a5761137a611355565b5060010190565b5f81518060208401855e5f93019283525090919050565b5f6108206113a68386611381565b84611381565b6001600160a01b03858116825284166020820152604081018390526080606082018190525f906113de908301846110c1565b9695505050505050565b5f602082840312156113f8575f5ffd5b815161065081611091565b818103818111156102f7576102f7611355565b634e487b7160e01b5f52603160045260245ffdfea2646970667358221220228ce14e07c9bc32a464ca66dfed7a82d8b83e5854343764fa2119d559ee89d064736f6c634300081c0033","linkReferences":{}},"methodIdentifiers":{"approve(address,uint256)":"095ea7b3","balanceOf(address)":"70a08231","getApproved(uint256)":"081812fc","isApprovedForAll(address,address)":"e985e9c5","mint(address)":"6a627842","name()":"06fdde03","nextTokenId()":"75794a3c","owner()":"8da5cb5b","ownerOf(uint256)":"6352211e","renounceOwnership()":"715018a6","safeTransferFrom(address,address,uint256)":"42842e0e","safeTransferFrom(address,address,uint256,bytes)":"b88d4fde","setApprovalForAll(address,bool)":"a22cb465","supportsInterface(bytes4)":"01ffc9a7","symbol()":"95d89b41","tokenByIndex(uint256)":"4f6ccce7","tokenOfOwnerByIndex(address,uint256)":"2f745c59","tokenURI(uint256)":"c87b56dd","totalSupply()":"18160ddd","transferFrom(address,address,uint256)":"23b872dd","transferOwnership(address)":"f2fde38b"},"id":32}