{"abi":[{"type":"constructor","inputs":[{"name":"_daoAddress","type":"address","internalType":"address"}],"stateMutability":"nonpayable"},{"type":"function","name":"approve","inputs":[{"name":"to","type":"address","internalType":"address"},{"name":"tokenId","type":"uint256","internalType":"uint256"}],"outputs":[],"stateMutability":"nonpayable"},{"type":"function","name":"balanceOf","inputs":[{"name":"owner","type":"address","internalType":"address"}],"outputs":[{"name":"","type":"uint256","internalType":"uint256"}],"stateMutability":"view"},{"type":"function","name":"daoAddress","inputs":[],"outputs":[{"name":"","type":"address","internalType":"address"}],"stateMutability":"view"},{"type":"function","name":"getApproved","inputs":[{"name":"tokenId","type":"uint256","internalType":"uint256"}],"outputs":[{"name":"","type":"address","internalType":"address"}],"stateMutability":"view"},{"type":"function","name":"hasMembership","inputs":[{"name":"","type":"address","internalType":"address"}],"outputs":[{"name":"","type":"bool","internalType":"bool"}],"stateMutability":"view"},{"type":"function","name":"isApprovedForAll","inputs":[{"name":"owner","type":"address","internalType":"address"},{"name":"operator","type":"address","internalType":"address"}],"outputs":[{"name":"","type":"bool","internalType":"bool"}],"stateMutability":"view"},{"type":"function","name":"mint","inputs":[{"name":"to","type":"address","internalType":"address"}],"outputs":[],"stateMutability":"nonpayable"},{"type":"function","name":"name","inputs":[],"outputs":[{"name":"","type":"string","internalType":"string"}],"stateMutability":"view"},{"type":"function","name":"nextTokenId","inputs":[],"outputs":[{"name":"","type":"uint256","internalType":"uint256"}],"stateMutability":"view"},{"type":"function","name":"owner","inputs":[],"outputs":[{"name":"","type":"address","internalType":"address"}],"stateMutability":"view"},{"type":"function","name":"ownerOf","inputs":[{"name":"tokenId","type":"uint256","internalType":"uint256"}],"outputs":[{"name":"","type":"address","internalType":"address"}],"stateMutability":"view"},{"type":"function","name":"renounceOwnership","inputs":[],"outputs":[],"stateMutability":"nonpayable"},{"type":"function","name":"safeTransferFrom","inputs":[{"name":"from","type":"address","internalType":"address"},{"name":"to","type":"address","internalType":"address"},{"name":"tokenId","type":"uint256","internalType":"uint256"}],"outputs":[],"stateMutability":"nonpayable"},{"type":"function","name":"safeTransferFrom","inputs":[{"name":"from","type":"address","internalType":"address"},{"name":"to","type":"address","internalType":"address"},{"name":"tokenId","type":"uint256","internalType":"uint256"},{"name":"data","type":"bytes","internalType":"bytes"}],"outputs":[],"stateMutability":"nonpayable"},{"type":"function","name":"setApprovalForAll","inputs":[{"name":"operator","type":"address","internalType":"address"},{"name":"approved","type":"bool","internalType":"bool"}],"outputs":[],"stateMutability":"nonpayable"},{"type":"function","name":"supportsInterface","inputs":[{"name":"interfaceId","type":"bytes4","internalType":"bytes4"}],"outputs":[{"name":"","type":"bool","internalType":"bool"}],"stateMutability":"view"},{"type":"function","name":"symbol","inputs":[],"outputs":[{"name":"","type":"string","internalType":"string"}],"stateMutability":"view"},{"type":"function","name":"tokenByIndex","inputs":[{"name":"index","type":"uint256","internalType":"uint256"}],"outputs":[{"name":"","type":"uint256","internalType":"uint256"}],"stateMutability":"view"},{"type":"function","name":"tokenOfOwnerByIndex","inputs":[{"name":"owner","type":"address","internalType":"address"},{"name":"index","type":"uint256","internalType":"uint256"}],"outputs":[{"name":"","type":"uint256","internalType":"uint256"}],"stateMutability":"view"},{"type":"function","name":"tokenURI","inputs":[{"name":"tokenId","type":"uint256","internalType":"uint256"}],"outputs":[{"name":"","type":"string","internalType":"string"}],"stateMutability":"view"},{"type":"function","name":"totalSupply","inputs":[],"outputs":[{"name":"","type":"uint256","internalType":"uint256"}],"stateMutability":"view"},{"type":"function","name":"transferFrom","inputs":[{"name":"from","type":"address","internalType":"address"},{"name":"to","type":"address","internalType":"address"},{"name":"tokenId","type":"uint256","internalType":"uint256"}],"outputs":[],"stateMutability":"nonpayable"},{"type":"function","name":"transferOwnership","inputs":[{"name":"newOwner","type":"address","internalType":"address"}],"outputs":[],"stateMutability":"nonpayable"},{"type":"event","name":"Approval","inputs":[{"name":"owner","type":"address","indexed":true,"internalType":"address"},{"name":"approved","type":"address","indexed":true,"internalType":"address"},{"name":"tokenId","type":"uint256","indexed":true,"internalType":"uint256"}],"anonymous":false},{"type":"event","name":"ApprovalForAll","inputs":[{"name":"owner","type":"address","indexed":true,"internalType":"address"},{"name":"operator","type":"address","indexed":true,"internalType":"address"},{"name":"approved","type":"bool","indexed":false,"internalType":"bool"}],"anonymous":false},{"type":"event","name":"OwnershipTransferred","inputs":[{"name":"previousOwner","type":"address","indexed":true,"internalType":"address"},{"name":"newOwner","type":"address","indexed":true,"internalType":"address"}],"anonymous":false},{"type":"event","name":"Transfer","inputs":[{"name":"from","type":"address","indexed":true,"internalType":"address"},{"name":"to","type":"address","indexed":true,"internalType":"address"},{"name":"tokenId","type":"uint256","indexed":true,"internalType":"uint256"}],"anonymous":false},{"type":"error","name":"ERC721EnumerableForbiddenBatchMint","inputs":[]},{"type":"error","name":"ERC721IncorrectOwner","inputs":[{"name":"sender","type":"address","internalType":"address"},{"name":"tokenId","type":"uint256","internalType":"uint256"},{"name":"owner","type":"address","internalType":"address"}]},{"type":"error","name":"ERC721InsufficientApproval","inputs":[{"name":"operator","type":"address","internalType":"address"},{"name":"tokenId","type":"uint256","internalType":"uint256"}]},{"type":"error","name":"ERC721InvalidApprover","inputs":[{"name":"approver","type":"address","internalType":"address"}]},{"type":"error","name":"ERC721InvalidOperator","inputs":[{"name":"operator","type":"address","internalType":"address"}]},{"type":"error","name":"ERC721InvalidOwner","inputs":[{"name":"owner","type":"address","internalType":"address"}]},{"type":"error","name":"ERC721InvalidReceiver","inputs":[{"name":"receiver","type":"address","internalType":"address"}]},{"type":"error","name":"ERC721InvalidSender","inputs":[{"name":"sender","type":"address","internalType":"address"}]},{"type":"error","name":"ERC721NonexistentToken","inputs":[{"name":"tokenId","type":"uint256","internalType":"uint256"}]},{"type":"error","name":"ERC721OutOfBoundsIndex","inputs":[{"name":"owner","type":"address","internalType":"address"},{"name":"index","type":"uint256","internalType":"uint256"}]},{"type":"error","name":"OwnableInvalidOwner","inputs":[{"name":"owner","type":"address","internalType":"address"}]},{"type":"error","name":"OwnableUnauthorizedAccount","inputs":[{"name":"account","type":"address","internalType":"address"}]}],"bytecode":{"object":"0x6080604052346103a9576116eb6020813803918261001c816103ad565b9384928339810103126103a957516001600160a01b038116908190036103a95761004660406103ad565b90601482527f4d6f7669652044414f204d656d62657273686970000000000000000000000000602083015261007b60406103ad565b60038152624d444d60e81b602082015282519091906001600160401b0381116102bd575f54600181811c9116801561039f575b602082101461029f57601f811161033d575b506020601f82116001146102dc57819293945f926102d1575b50508160011b915f199060031b1c1916175f555b81516001600160401b0381116102bd57600154600181811c911680156102b3575b602082101461029f57601f811161023c575b50602092601f82116001146101db57928192935f926101d0575b50508160011b915f199060031b1c1916176001555b80156101bd57600a80546001600160a01b031981168317909155604051919081906001600160a01b03167f8be0079c531659141344cd1fd0a4f28419497f9722a3daafe3b4186f6b6457e05f80a3600c80546001600160a01b03191691909117905561131890816103d38239f35b631e4fbdf760e01b5f525f60045260245ffd5b015190505f8061013a565b601f1982169360015f52805f20915f5b868110610224575083600195961061020c575b505050811b0160015561014f565b01515f1960f88460031b161c191690555f80806101fe565b919260206001819286850151815501940192016101eb565b60015f527fb10e2d527612073b26eecdfd717e6a320cf44b4afac2b0732d9fcbe2b7fa0cf6601f830160051c81019160208410610295575b601f0160051c01905b81811061028a5750610120565b5f815560010161027d565b9091508190610274565b634e487b7160e01b5f52602260045260245ffd5b90607f169061010e565b634e487b7160e01b5f52604160045260245ffd5b015190505f806100d9565b601f198216905f8052805f20915f5b8181106103255750958360019596971061030d575b505050811b015f556100ed565b01515f1960f88460031b161c191690555f8080610300565b9192602060018192868b0151815501940192016102eb565b5f80527f290decd9548b62a8d60345a988386fc84ba6bc95484008f6362f93160ef3e563601f830160051c81019160208410610395575b601f0160051c01905b81811061038a57506100c0565b5f815560010161037d565b9091508190610374565b90607f16906100ae565b5f80fd5b6040519190601f01601f191682016001600160401b038111838210176102bd5760405256fe6080806040526004361015610012575f80fd5b5f905f3560e01c90816301ffc9a714610d1f5750806306fdde0314610c67578063081812fc14610c2b578063095ea7b314610b4157806318160ddd14610b245780632131c68c14610afc57806323b872dd14610ae55780632f745c5914610a7357806342842e0e14610a445780634f6ccce7146109f65780636352211e146109c65780636a6278421461059c57806370a0823114610571578063715018a61461051657806375794a3c146104f95780638da5cb5b146104d157806395d89b41146103c9578063a22cb4651461032e578063a88db6ad146102f1578063b88d4fde1461025b578063c87b56dd146101fe578063e985e9c5146101a65763f2fde38b1461011b575f80fd5b346101a35760203660031901126101a357610134610dc8565b61013c611185565b6001600160a01b0316801561018f57600a80546001600160a01b0319811683179091556001600160a01b03167f8be0079c531659141344cd1fd0a4f28419497f9722a3daafe3b4186f6b6457e05f80a380f35b631e4fbdf760e01b82526004829052602482fd5b80fd5b50346101a35760403660031901126101a35760406101c2610dc8565b916101cb610dde565b9260018060a01b031681526005602052209060018060a01b03165f52602052602060ff60405f2054166040519015158152f35b346102575760203660031901126102575761021a600435611151565b505f60405161022a602082610e2e565b5261025360405161023c602082610e2e565b5f8152604051918291602083526020830190610da4565b0390f35b5f80fd5b3461025757608036600319011261025757610274610dc8565b61027c610dde565b906044356064359267ffffffffffffffff84116102575736602385011215610257578360040135926102ad84610e50565b936102bb6040519586610e2e565b8085523660248288010111610257576020815f9260246102ef990183890137860101526102e9838383610e6c565b336111ac565b005b34610257576020366003190112610257576001600160a01b03610312610dc8565b165f52600d602052602060ff60405f2054166040519015158152f35b3461025757604036600319011261025757610347610dc8565b60243590811515809203610257576001600160a01b03169081156103b657335f52600560205260405f20825f5260205260405f2060ff1981541660ff83161790556040519081527f17307eab39ab6107e8899845ad3d59bd9653f200f220920489ca2b5937696c3160203392a3005b50630b61174360e31b5f5260045260245ffd5b34610257575f366003190112610257576040515f6001548060011c906001811680156104c7575b6020831081146104b35782855290811561048f5750600114610431575b6102538361041d81850382610e2e565b604051918291602083526020830190610da4565b91905060015f527fb10e2d527612073b26eecdfd717e6a320cf44b4afac2b0732d9fcbe2b7fa0cf6915f905b8082106104755750909150810160200161041d61040d565b91926001816020925483858801015201910190929161045d565b60ff191660208086019190915291151560051b8401909101915061041d905061040d565b634e487b7160e01b5f52602260045260245ffd5b91607f16916103f0565b34610257575f36600319011261025757600a546040516001600160a01b039091168152602090f35b34610257575f366003190112610257576020600b54604051908152f35b34610257575f3660031901126102575761052e611185565b600a80546001600160a01b031981169091555f906001600160a01b03167f8be0079c531659141344cd1fd0a4f28419497f9722a3daafe3b4186f6b6457e08280a3005b3461025757602036600319011261025757602061059461058f610dc8565b611120565b604051908152f35b34610257576020366003190112610257576105b5610dc8565b600c546001600160a01b0316330361098d576001600160a01b0381165f818152600d602052604090205490919060ff1661094857600b54905f1982146108665760018201600b556020916040519161060d8484610e2e565b5f83528415610935575f8281526002855260409020546001600160a01b031680158015919082610904575b875f526003875260405f2060018154019055845f526002875260405f20886bffffffffffffffffffffffff60a01b8254161790558488837fddf252ad1be2c89b69c2b068fc378daa952ba7f163c4a11628f55a4df523b3ef5f80a41561088e57600854845f52600987528060405f2055600160401b81101561087a57846106c88260016106e094016008556110f4565b90919082549060031b91821b915f19901b1916179055565b86810361082b575b50610818573b61070c575b5f848152600d845260409020805460ff19166001179055005b6107469183916040519384928392630a85bd0160e11b84523360048501525f60248501526044840152608060648401526084830190610da4565b03815f875af15f91816107d8575b506107a657503d1561079f573d61076a81610e50565b906107786040519283610e2e565b81523d5f8383013e5b8051918261079c5783633250574960e11b5f5260045260245ffd5b01fd5b6060610781565b6001600160e01b03191663757a42ff60e11b016107c557600d836106f3565b50633250574960e11b5f5260045260245ffd5b9091508281813d8311610811575b6107f08183610e2e565b8101031261025757516001600160e01b031981168103610257579084610754565b503d6107e6565b6339e3563760e11b5f525f60045260245ffd5b61083483611120565b5f19810190811161086657875f526006875260405f20815f5287528460405f2055845f526007875260405f20556106e8565b634e487b7160e01b5f52601160045260245ffd5b634e487b7160e01b5f52604160045260245ffd5b8087146106e05761089e81611120565b845f526007875260405f205490825f526006885260405f20918181036108dc575b50855f52600788525f60408120555f5286525f60408120556106e0565b815f5282895260405f2054815f52838a528060405f20555f526007895260405f2055896108bf565b5f8581526004602052604080822080546001600160a01b031916905583825260038952902080545f19019055610638565b633250574960e11b5f525f60045260245ffd5b60405162461bcd60e51b815260206004820152601b60248201527f5573657220616c726561647920686173206d656d6265727368697000000000006044820152606490fd5b60405162461bcd60e51b815260206004820152601160248201527013db9b1e48111053c818d85b881b5a5b9d607a1b6044820152606490fd5b346102575760203660031901126102575760206109e4600435611151565b6040516001600160a01b039091168152f35b3461025757602036600319011261025757600435600854811015610a2e57610a1f6020916110f4565b90549060031b1c604051908152f35b63295f44f760e21b5f525f60045260245260445ffd5b34610257576102ef610a5536610df4565b9060405192610a65602085610e2e565b5f84526102e9838383610e6c565b3461025757604036600319011261025757610a8c610dc8565b60243590610a9981611120565b821015610ac85760018060a01b03165f52600660205260405f20905f52602052602060405f2054604051908152f35b63295f44f760e21b5f5260018060a01b031660045260245260445ffd5b34610257576102ef610af636610df4565b91610e6c565b34610257575f36600319011261025757600c546040516001600160a01b039091168152602090f35b34610257575f366003190112610257576020600854604051908152f35b3461025757604036600319011261025757610b5a610dc8565b602435610b6681611151565b33151580610c18575b80610beb575b610bd85781906001600160a01b0384811691167f8c5be1e5ebec7d5bd14f71427d1e84f3dd0314c0f7b2291e5b200ac8c7c3b9255f80a45f90815260046020526040902080546001600160a01b0319166001600160a01b03909216919091179055005b63a9fbf51f60e01b5f523360045260245ffd5b506001600160a01b0381165f90815260056020908152604080832033845290915290205460ff1615610b75565b506001600160a01b038116331415610b6f565b3461025757602036600319011261025757600435610c4881611151565b505f526004602052602060018060a01b0360405f205416604051908152f35b34610257575f366003190112610257576040515f5f548060011c90600181168015610d15575b6020831081146104b35782855290811561048f5750600114610cb9576102538361041d81850382610e2e565b5f8080527f290decd9548b62a8d60345a988386fc84ba6bc95484008f6362f93160ef3e563939250905b808210610cfb5750909150810160200161041d61040d565b919260018160209254838588010152019101909291610ce3565b91607f1691610c8d565b34610257576020366003190112610257576004359063ffffffff60e01b82168092036102575760209163780e9d6360e01b8114908115610d61575b5015158152f35b6380ac58cd60e01b811491508115610d93575b8115610d82575b5083610d5a565b6301ffc9a760e01b14905083610d7b565b635b5e139f60e01b81149150610d74565b805180835260209291819084018484015e5f828201840152601f01601f1916010190565b600435906001600160a01b038216820361025757565b602435906001600160a01b038216820361025757565b6060906003190112610257576004356001600160a01b038116810361025757906024356001600160a01b0381168103610257579060443590565b90601f8019910116810190811067ffffffffffffffff82111761087a57604052565b67ffffffffffffffff811161087a57601f01601f191660200190565b9091906001600160a01b0383168015610935575f838152600260205260409020546001600160a01b03169333151580611064575b5084158015611031575b825f52600360205260405f2060018154019055845f52600260205260405f20836bffffffffffffffffffffffff60a01b8254161790558483877fddf252ad1be2c89b69c2b068fc378daa952ba7f163c4a11628f55a4df523b3ef5f80a415610fb457600854845f5260096020528060405f2055600160401b81101561087a57846106c8826001610f3d94016008556110f4565b818503610f74575b50506001600160a01b0316808303610f5c57505050565b6364283d7b60e01b5f5260045260245260445260645ffd5b610f7d90611120565b5f19810191908211610866575f52600660205260405f20815f526020528260405f2055825f52600760205260405f20555f80610f45565b848214610f3d57610fc485611120565b845f52600760205260405f205490865f52600660205260405f2091818103611006575b50855f5260076020525f60408120555f526020525f6040812055610f3d565b815f528260205260405f2054815f52836020528060405f20555f52600760205260405f20555f610fe7565b5f85815260046020526040902080546001600160a01b0319169055855f52600360205260405f205f198154019055610eaa565b806110a3575b15611075575f610ea0565b838561108d57637e27328960e01b5f5260045260245ffd5b63177e802f60e01b5f523360045260245260445ffd5b5033851480156110d2575b8061106a57505f848152600460205260409020546001600160a01b0316331461106a565b505f85815260056020908152604080832033845290915290205460ff166110ae565b60085481101561110c5760085f5260205f2001905f90565b634e487b7160e01b5f52603260045260245ffd5b6001600160a01b0316801561113e575f52600360205260405f205490565b6322718ad960e21b5f525f60045260245ffd5b5f818152600260205260409020546001600160a01b0316908115611173575090565b637e27328960e01b5f5260045260245ffd5b600a546001600160a01b0316330361119957565b63118cdaa760e01b5f523360045260245ffd5b823b6111ba575b5050505050565b604051630a85bd0160e11b81526001600160a01b039182166004820152918116602483015260448201939093526080606482015291169160209082908190611206906084830190610da4565b03815f865af15f918161129d575b5061126957503d15611262573d61122a81610e50565b906112386040519283610e2e565b81523d5f602083013e5b8051908161125d5782633250574960e11b5f5260045260245ffd5b602001fd5b6060611242565b6001600160e01b03191663757a42ff60e11b0161128b57505f808080806111b3565b633250574960e11b5f5260045260245ffd5b9091506020813d6020116112da575b816112b960209383610e2e565b8101031261025757516001600160e01b03198116810361025757905f611214565b3d91506112ac56fea2646970667358221220f1c536b4ebc8aa5a1d5172d60e40bb61c0fbb33a3d99a5db1f96471d693247cf64736f6c634300081c0033","linkReferences":{}},"methodIdentifiers":{"approve(address,uint256)":"095ea7b3","balanceOf(address)":"70a08231","daoAddress()":"2131c68c","getApproved(uint256)":"081812fc","hasMembership(address)":"a88db6ad","isApprovedForAll(address,address)":"e985e9c5","mint(address)":"6a627842","name()":"06fdde03","nextTokenId()":"75794a3c","owner()":"8da5cb5b","ownerOf(uint256)":"6352211e","renounceOwnership()":"715018a6","safeTransferFrom(address,address,uint256)":"42842e0e","safeTransferFrom(address,address,uint256,bytes)":"b88d4fde","setApprovalForAll(address,bool)":"a22cb465","supportsInterface(bytes4)":"01ffc9a7","symbol()":"95d89b41","tokenByIndex(uint256)":"4f6ccce7","tokenOfOwnerByIndex(address,uint256)":"2f745c59","tokenURI(uint256)":"c87b56dd","totalSupply()":"18160ddd","transferFrom(address,address,uint256)":"23b872dd","transferOwnership(address)":"f2fde38b"},"id":38}