{"abi":[{"type":"constructor","inputs":[{"name":"creator","type":"address","internalType":"address"},{"name":"_movieName","type":"string","internalType":"string"}],"stateMutability":"nonpayable"},{"type":"function","name":"movieName","inputs":[],"outputs":[{"name":"","type":"string","internalType":"string"}],"stateMutability":"view"},{"type":"function","name":"owner","inputs":[],"outputs":[{"name":"","type":"address","internalType":"address"}],"stateMutability":"view"},{"type":"function","name":"renounceOwnership","inputs":[],"outputs":[],"stateMutability":"nonpayable"},{"type":"function","name":"transferOwnership","inputs":[{"name":"newOwner","type":"address","internalType":"address"}],"outputs":[],"stateMutability":"nonpayable"},{"type":"event","name":"OwnershipTransferred","inputs":[{"name":"previousOwner","type":"address","indexed":true,"internalType":"address"},{"name":"newOwner","type":"address","indexed":true,"internalType":"address"}],"anonymous":false},{"type":"error","name":"OwnableInvalidOwner","inputs":[{"name":"owner","type":"address","internalType":"address"}]},{"type":"error","name":"OwnableUnauthorizedAccount","inputs":[{"name":"account","type":"address","internalType":"address"}]}],"bytecode":{"object":"0x608060405234801561000f575f5ffd5b506040516105c63803806105c683398101604081905261002e916100dd565b816001600160a01b03811661005c57604051631e4fbdf760e01b81525f600482015260240160405180910390fd5b6100658161007a565b5060016100728282610230565b5050506102ea565b5f80546001600160a01b038381166001600160a01b0319831681178455604051919092169283917f8be0079c531659141344cd1fd0a4f28419497f9722a3daafe3b4186f6b6457e09190a35050565b634e487b7160e01b5f52604160045260245ffd5b5f5f604083850312156100ee575f5ffd5b82516001600160a01b0381168114610104575f5ffd5b60208401519092506001600160401b0381111561011f575f5ffd5b8301601f8101851361012f575f5ffd5b80516001600160401b03811115610148576101486100c9565b604051601f8201601f19908116603f011681016001600160401b0381118282101715610176576101766100c9565b60405281815282820160200187101561018d575f5ffd5b8160208401602083015e5f602083830101528093505050509250929050565b600181811c908216806101c057607f821691505b6020821081036101de57634e487b7160e01b5f52602260045260245ffd5b50919050565b601f82111561022b57805f5260205f20601f840160051c810160208510156102095750805b601f840160051c820191505b81811015610228575f8155600101610215565b50505b505050565b81516001600160401b03811115610249576102496100c9565b61025d8161025784546101ac565b846101e4565b6020601f82116001811461028f575f83156102785750848201515b5f19600385901b1c1916600184901b178455610228565b5f84815260208120601f198516915b828110156102be578785015182556020948501946001909201910161029e565b50848210156102db57868401515f19600387901b60f8161c191681555b50505050600190811b01905550565b6102cf806102f75f395ff3fe608060405234801561000f575f5ffd5b506004361061004a575f3560e01c806327eef6f31461004e578063715018a61461006c5780638da5cb5b14610076578063f2fde38b14610090575b5f5ffd5b6100566100a3565b60405161006391906101ff565b60405180910390f35b61007461012f565b005b5f546040516001600160a01b039091168152602001610063565b61007461009e366004610234565b610142565b600180546100b090610261565b80601f01602080910402602001604051908101604052809291908181526020018280546100dc90610261565b80156101275780601f106100fe57610100808354040283529160200191610127565b820191905f5260205f20905b81548152906001019060200180831161010a57829003601f168201915b505050505081565b610137610184565b6101405f6101b0565b565b61014a610184565b6001600160a01b03811661017857604051631e4fbdf760e01b81525f60048201526024015b60405180910390fd5b610181816101b0565b50565b5f546001600160a01b031633146101405760405163118cdaa760e01b815233600482015260240161016f565b5f80546001600160a01b038381166001600160a01b0319831681178455604051919092169283917f8be0079c531659141344cd1fd0a4f28419497f9722a3daafe3b4186f6b6457e09190a35050565b602081525f82518060208401528060208501604085015e5f604082850101526040601f19601f83011684010191505092915050565b5f60208284031215610244575f5ffd5b81356001600160a01b038116811461025a575f5ffd5b9392505050565b600181811c9082168061027557607f821691505b60208210810361029357634e487b7160e01b5f52602260045260245ffd5b5091905056fea264697066735822122095ab46245139a8fa76a154e1d1aaf4d177c7cde23398e6b4bf68dd2f36e61ae864736f6c634300081c0033","linkReferences":{}},"methodIdentifiers":{"movieName()":"27eef6f3","owner()":"8da5cb5b","renounceOwnership()":"715018a6","transferOwnership(address)":"f2fde38b"},"id":35}