{"abi":[{"type":"function","name":"createMovieDAO","inputs":[{"name":"movieName","type":"string","internalType":"string"}],"outputs":[],"stateMutability":"nonpayable"},{"type":"function","name":"daos","inputs":[{"name":"","type":"uint256","internalType":"uint256"}],"outputs":[{"name":"creator","type":"address","internalType":"address"},{"name":"daoAddress","type":"address","internalType":"address"},{"name":"movieName","type":"string","internalType":"string"}],"stateMutability":"view"},{"type":"function","name":"getDAOs","inputs":[],"outputs":[{"name":"","type":"tuple[]","internalType":"struct MovieDAOFactory.DAO[]","components":[{"name":"creator","type":"address","internalType":"address"},{"name":"daoAddress","type":"address","internalType":"address"},{"name":"movieName","type":"string","internalType":"string"}]}],"stateMutability":"view"},{"type":"event","name":"DAOCreated","inputs":[{"name":"creator","type":"address","indexed":true,"internalType":"address"},{"name":"daoAddress","type":"address","indexed":false,"internalType":"address"},{"name":"movieName","type":"string","indexed":false,"internalType":"string"}],"anonymous":false}],"bytecode":{"object":"0x6080604052348015600e575f5ffd5b50610d098061001c5f395ff3fe608060405234801561000f575f5ffd5b506004361061003f575f3560e01c8063415cc7dd14610043578063ccbbd26014610061578063d2cea79514610083575b5f5ffd5b61004b610098565b60405161005891906103ff565b60405180910390f35b61007461006f366004610491565b6101a7565b604051610058939291906104a8565b6100966100913660046104f0565b61026e565b005b60605f805480602002602001604051908101604052809291908181526020015f905b8282101561019e575f848152602090819020604080516060810182526003860290920180546001600160a01b039081168452600182015416938301939093526002830180549293929184019161010f906105a3565b80601f016020809104026020016040519081016040528092919081815260200182805461013b906105a3565b80156101865780601f1061015d57610100808354040283529160200191610186565b820191905f5260205f20905b81548152906001019060200180831161016957829003601f168201915b505050505081525050815260200190600101906100ba565b50505050905090565b5f81815481106101b5575f80fd5b5f9182526020909120600390910201805460018201546002830180546001600160a01b0393841695509290911692916101ed906105a3565b80601f0160208091040260200160405190810160405280929190818152602001828054610219906105a3565b80156102645780601f1061023b57610100808354040283529160200191610264565b820191905f5260205f20905b81548152906001019060200180831161024757829003601f168201915b5050505050905083565b5f338260405161027d906103c4565b6102889291906105db565b604051809103905ff0801580156102a1573d5f5f3e3d5ffd5b50604080516060810182523381526001600160a01b03808416602083019081529282018681525f8054600181018255908052835160039091027f290decd9548b62a8d60345a988386fc84ba6bc95484008f6362f93160ef3e563810180549285166001600160a01b031993841617815595517f290decd9548b62a8d60345a988386fc84ba6bc95484008f6362f93160ef3e56482018054919095169216919091179092555193945090927f290decd9548b62a8d60345a988386fc84ba6bc95484008f6362f93160ef3e5659091019061037a9082610652565b505050336001600160a01b03167f87efdefc545e4a926431f358053a7ddaf28342672ba94923d20b4c07451b75a082846040516103b89291906105db565b60405180910390a25050565b6105c68061070e83390190565b5f81518084528060208401602086015e5f602082860101526020601f19601f83011685010191505092915050565b5f602082016020835280845180835260408501915060408160051b8601019250602086015f5b8281101561048557868503603f19018452815180516001600160a01b0390811687526020808301519091169087015260409081015160609187018290529061046f908701826103d1565b9550506020938401939190910190600101610425565b50929695505050505050565b5f602082840312156104a1575f5ffd5b5035919050565b6001600160a01b038481168252831660208201526060604082018190525f906104d3908301846103d1565b95945050505050565b634e487b7160e01b5f52604160045260245ffd5b5f60208284031215610500575f5ffd5b813567ffffffffffffffff811115610516575f5ffd5b8201601f81018413610526575f5ffd5b803567ffffffffffffffff811115610540576105406104dc565b604051601f8201601f19908116603f0116810167ffffffffffffffff8111828210171561056f5761056f6104dc565b604052818152828201602001861015610586575f5ffd5b816020840160208301375f91810160200191909152949350505050565b600181811c908216806105b757607f821691505b6020821081036105d557634e487b7160e01b5f52602260045260245ffd5b50919050565b6001600160a01b03831681526040602082018190525f906105fe908301846103d1565b949350505050565b601f82111561064d57805f5260205f20601f840160051c8101602085101561062b5750805b601f840160051c820191505b8181101561064a575f8155600101610637565b50505b505050565b815167ffffffffffffffff81111561066c5761066c6104dc565b6106808161067a84546105a3565b84610606565b6020601f8211600181146106b2575f831561069b5750848201515b5f19600385901b1c1916600184901b17845561064a565b5f84815260208120601f198516915b828110156106e157878501518255602094850194600190920191016106c1565b50848210156106fe57868401515f19600387901b60f8161c191681555b50505050600190811b0190555056fe608060405234801561000f575f5ffd5b506040516105c63803806105c683398101604081905261002e916100dd565b816001600160a01b03811661005c57604051631e4fbdf760e01b81525f600482015260240160405180910390fd5b6100658161007a565b5060016100728282610230565b5050506102ea565b5f80546001600160a01b038381166001600160a01b0319831681178455604051919092169283917f8be0079c531659141344cd1fd0a4f28419497f9722a3daafe3b4186f6b6457e09190a35050565b634e487b7160e01b5f52604160045260245ffd5b5f5f604083850312156100ee575f5ffd5b82516001600160a01b0381168114610104575f5ffd5b60208401519092506001600160401b0381111561011f575f5ffd5b8301601f8101851361012f575f5ffd5b80516001600160401b03811115610148576101486100c9565b604051601f8201601f19908116603f011681016001600160401b0381118282101715610176576101766100c9565b60405281815282820160200187101561018d575f5ffd5b8160208401602083015e5f602083830101528093505050509250929050565b600181811c908216806101c057607f821691505b6020821081036101de57634e487b7160e01b5f52602260045260245ffd5b50919050565b601f82111561022b57805f5260205f20601f840160051c810160208510156102095750805b601f840160051c820191505b81811015610228575f8155600101610215565b50505b505050565b81516001600160401b03811115610249576102496100c9565b61025d8161025784546101ac565b846101e4565b6020601f82116001811461028f575f83156102785750848201515b5f19600385901b1c1916600184901b178455610228565b5f84815260208120601f198516915b828110156102be578785015182556020948501946001909201910161029e565b50848210156102db57868401515f19600387901b60f8161c191681555b50505050600190811b01905550565b6102cf806102f75f395ff3fe608060405234801561000f575f5ffd5b506004361061004a575f3560e01c806327eef6f31461004e578063715018a61461006c5780638da5cb5b14610076578063f2fde38b14610090575b5f5ffd5b6100566100a3565b60405161006391906101ff565b60405180910390f35b61007461012f565b005b5f546040516001600160a01b039091168152602001610063565b61007461009e366004610234565b610142565b600180546100b090610261565b80601f01602080910402602001604051908101604052809291908181526020018280546100dc90610261565b80156101275780601f106100fe57610100808354040283529160200191610127565b820191905f5260205f20905b81548152906001019060200180831161010a57829003601f168201915b505050505081565b610137610184565b6101405f6101b0565b565b61014a610184565b6001600160a01b03811661017857604051631e4fbdf760e01b81525f60048201526024015b60405180910390fd5b610181816101b0565b50565b5f546001600160a01b031633146101405760405163118cdaa760e01b815233600482015260240161016f565b5f80546001600160a01b038381166001600160a01b0319831681178455604051919092169283917f8be0079c531659141344cd1fd0a4f28419497f9722a3daafe3b4186f6b6457e09190a35050565b602081525f82518060208401528060208501604085015e5f604082850101526040601f19601f83011684010191505092915050565b5f60208284031215610244575f5ffd5b81356001600160a01b038116811461025a575f5ffd5b9392505050565b600181811c9082168061027557607f821691505b60208210810361029357634e487b7160e01b5f52602260045260245ffd5b5091905056fea264697066735822122095ab46245139a8fa76a154e1d1aaf4d177c7cde23398e6b4bf68dd2f36e61ae864736f6c634300081c0033a26469706673582212205a612638ce0af91b193a42f3dd4473631c5fe1399551d2d7ab5f380b6edce60a64736f6c634300081c0033","linkReferences":{}},"methodIdentifiers":{"createMovieDAO(string)":"d2cea795","daos(uint256)":"ccbbd260","getDAOs()":"415cc7dd"},"id":35}